{
  "contractName": "LoadRestaurant",
  "abi": [
    {
      "inputs": [
        {
          "internalType": "contract IERC20",
          "name": "_load",
          "type": "address"
        },
        {
          "internalType": "uint256",
          "name": "_reductionPerBlock",
          "type": "uint256"
        }
      ],
      "stateMutability": "nonpayable",
      "type": "constructor"
    },
    {
      "anonymous": false,
      "inputs": [
        {
          "indexed": true,
          "internalType": "address",
          "name": "user",
          "type": "address"
        },
        {
          "indexed": false,
          "internalType": "uint256",
          "name": "amount",
          "type": "uint256"
        }
      ],
      "name": "Enter",
      "type": "event"
    },
    {
      "anonymous": false,
      "inputs": [
        {
          "indexed": true,
          "internalType": "address",
          "name": "user",
          "type": "address"
        },
        {
          "indexed": false,
          "internalType": "uint256",
          "name": "amount",
          "type": "uint256"
        }
      ],
      "name": "Leave",
      "type": "event"
    },
    {
      "inputs": [],
      "name": "accLoadPerShare",
      "outputs": [
        {
          "internalType": "uint256",
          "name": "",
          "type": "uint256"
        }
      ],
      "stateMutability": "view",
      "type": "function"
    },
    {
      "inputs": [],
      "name": "ackLoadBalance",
      "outputs": [
        {
          "internalType": "uint256",
          "name": "",
          "type": "uint256"
        }
      ],
      "stateMutability": "view",
      "type": "function"
    },
    {
      "inputs": [],
      "name": "lastMultiplerProcessBlock",
      "outputs": [
        {
          "internalType": "uint256",
          "name": "",
          "type": "uint256"
        }
      ],
      "stateMutability": "view",
      "type": "function"
    },
    {
      "inputs": [],
      "name": "load",
      "outputs": [
        {
          "internalType": "contract IERC20",
          "name": "",
          "type": "address"
        }
      ],
      "stateMutability": "view",
      "type": "function"
    },
    {
      "inputs": [],
      "name": "multiplier",
      "outputs": [
        {
          "internalType": "uint256",
          "name": "",
          "type": "uint256"
        }
      ],
      "stateMutability": "view",
      "type": "function"
    },
    {
      "inputs": [],
      "name": "reductionPerBlock",
      "outputs": [
        {
          "internalType": "uint256",
          "name": "",
          "type": "uint256"
        }
      ],
      "stateMutability": "view",
      "type": "function"
    },
    {
      "inputs": [],
      "name": "totalShares",
      "outputs": [
        {
          "internalType": "uint256",
          "name": "",
          "type": "uint256"
        }
      ],
      "stateMutability": "view",
      "type": "function"
    },
    {
      "inputs": [
        {
          "internalType": "address",
          "name": "",
          "type": "address"
        }
      ],
      "name": "userInfo",
      "outputs": [
        {
          "internalType": "uint256",
          "name": "amount",
          "type": "uint256"
        },
        {
          "internalType": "uint256",
          "name": "share",
          "type": "uint256"
        },
        {
          "internalType": "uint256",
          "name": "rewardDebt",
          "type": "uint256"
        }
      ],
      "stateMutability": "view",
      "type": "function"
    },
    {
      "inputs": [],
      "name": "cleanup",
      "outputs": [],
      "stateMutability": "nonpayable",
      "type": "function"
    },
    {
      "inputs": [
        {
          "internalType": "address",
          "name": "_user",
          "type": "address"
        }
      ],
      "name": "getPendingReward",
      "outputs": [
        {
          "internalType": "uint256",
          "name": "",
          "type": "uint256"
        }
      ],
      "stateMutability": "view",
      "type": "function"
    },
    {
      "inputs": [
        {
          "internalType": "uint256",
          "name": "_amount",
          "type": "uint256"
        }
      ],
      "name": "enter",
      "outputs": [],
      "stateMutability": "nonpayable",
      "type": "function"
    },
    {
      "inputs": [
        {
          "internalType": "uint256",
          "name": "_amount",
          "type": "uint256"
        }
      ],
      "name": "leave",
      "outputs": [],
      "stateMutability": "nonpayable",
      "type": "function"
    }
  ],
  "bytecode": "0x608060405234801561001057600080fd5b506040516110e03803806110e08339818101604052604081101561003357600080fd5b810190808051906020019092919080519060200190929190505050816000806101000a81548173ffffffffffffffffffffffffffffffffffffffff021916908373ffffffffffffffffffffffffffffffffffffffff16021790555080600181905550670de0b6b3a7640000600281905550436003819055505050611024806100bc6000396000f3fe608060405234801561001057600080fd5b50600436106100b45760003560e01c80637c6c8b2a116100715780637c6c8b2a146101eb57806386d5c4be1461020957806394a918281461023d578063a59f3e0c1461025b578063d955c66a14610289578063e6f7c7a4146102a7576100b4565b80631959a002146100b95780631b3ed7221461011f5780633a98ef391461013d5780633cecd7191461015b5780634df9d6ba1461016557806367dfd4c9146101bd575b600080fd5b6100fb600480360360208110156100cf57600080fd5b81019080803573ffffffffffffffffffffffffffffffffffffffff1690602001909291905050506102c5565b60405180848152602001838152602001828152602001935050505060405180910390f35b6101276102ef565b6040518082815260200191505060405180910390f35b6101456102f5565b6040518082815260200191505060405180910390f35b6101636102fb565b005b6101a76004803603602081101561017b57600080fd5b81019080803573ffffffffffffffffffffffffffffffffffffffff169060200190929190505050610537565b6040518082815260200191505060405180910390f35b6101e9600480360360208110156101d357600080fd5b81019080803590602001909291905050506105c9565b005b6101f3610745565b6040518082815260200191505060405180910390f35b61021161074b565b604051808273ffffffffffffffffffffffffffffffffffffffff16815260200191505060405180910390f35b61024561076f565b6040518082815260200191505060405180910390f35b6102876004803603602081101561027157600080fd5b8101908080359060200190929190505050610775565b005b6102916109ef565b6040518082815260200191505060405180910390f35b6102af6109f5565b6040518082815260200191505060405180910390f35b60076020528060005260406000206000915090508060000154908060010154908060020154905083565b60025481565b60065481565b6000610312600354436109fb90919063ffffffff16565b90506000670de0b6b3a76400009050600060015490505b60008311156103ae576000600184161461036d5761036a670de0b6b3a764000061035c8385610a4590919063ffffffff16565b610acb90919063ffffffff16565b91505b61039a670de0b6b3a764000061038c8384610a4590919063ffffffff16565b610acb90919063ffffffff16565b9050600283816103a657fe5b049250610329565b6103dd670de0b6b3a76400006103cf84600254610a4590919063ffffffff16565b610acb90919063ffffffff16565b60028190555043600381905550600060065411156105325760006104cd60055460008054906101000a900473ffffffffffffffffffffffffffffffffffffffff1673ffffffffffffffffffffffffffffffffffffffff166370a08231306040518263ffffffff1660e01b8152600401808273ffffffffffffffffffffffffffffffffffffffff16815260200191505060206040518083038186803b15801561048457600080fd5b505afa158015610498573d6000803e3d6000fd5b505050506040513d60208110156104ae57600080fd5b81019080805190602001909291905050506109fb90919063ffffffff16565b905061050f6104fe6006546104f064e8d4a5100085610a4590919063ffffffff16565b610acb90919063ffffffff16565b600454610b1590919063ffffffff16565b60048190555061052a81600554610b1590919063ffffffff16565b600581905550505b505050565b600080600760008473ffffffffffffffffffffffffffffffffffffffff1673ffffffffffffffffffffffffffffffffffffffff16815260200190815260200160002090506105c181600201546105b364e8d4a510006105a56004548660010154610a4590919063ffffffff16565b610acb90919063ffffffff16565b6109fb90919063ffffffff16565b915050919050565b6105d16102fb565b6105e3336105de33610537565b610b9d565b6000600760003373ffffffffffffffffffffffffffffffffffffffff1673ffffffffffffffffffffffffffffffffffffffff168152602001908152602001600020905060006106558260000154610647858560010154610a4590919063ffffffff16565b610acb90919063ffffffff16565b905061066e8383600001546109fb90919063ffffffff16565b826000018190555061068b816006546109fb90919063ffffffff16565b6006819055506106a88183600101546109fb90919063ffffffff16565b82600101819055506106e064e8d4a510006106d26004548560010154610a4590919063ffffffff16565b610acb90919063ffffffff16565b82600201819055506106f23384610b9d565b3373ffffffffffffffffffffffffffffffffffffffff167f61a26f7c17d8780c095ccfa67e689a13ee4e06ddce3da18956369f4a396100e8846040518082815260200191505060405180910390a2505050565b60055481565b60008054906101000a900473ffffffffffffffffffffffffffffffffffffffff1681565b60045481565b61077d6102fb565b61078f3361078a33610537565b610b9d565b60008054906101000a900473ffffffffffffffffffffffffffffffffffffffff1673ffffffffffffffffffffffffffffffffffffffff166323b872dd3330846040518463ffffffff1660e01b8152600401808473ffffffffffffffffffffffffffffffffffffffff1681526020018373ffffffffffffffffffffffffffffffffffffffff1681526020018281526020019350505050602060405180830381600087803b15801561083e57600080fd5b505af1158015610852573d6000803e3d6000fd5b505050506040513d602081101561086857600080fd5b81019080805190602001909291905050505061088f81600554610b1590919063ffffffff16565b6005819055506000600760003373ffffffffffffffffffffffffffffffffffffffff1673ffffffffffffffffffffffffffffffffffffffff16815260200190815260200160002090506000610909670de0b6b3a76400006108fb60025486610a4590919063ffffffff16565b610acb90919063ffffffff16565b9050610922838360000154610b1590919063ffffffff16565b826000018190555061093f81600654610b1590919063ffffffff16565b60068190555061095c818360010154610b1590919063ffffffff16565b826001018190555061099464e8d4a510006109866004548560010154610a4590919063ffffffff16565b610acb90919063ffffffff16565b82600201819055503373ffffffffffffffffffffffffffffffffffffffff167f1fb48929215fc354244acea33112720ce5b7ba6912db70bb0149e77aa7c91ce1846040518082815260200191505060405180910390a2505050565b60035481565b60015481565b6000610a3d83836040518060400160405280601e81526020017f536166654d6174683a207375627472616374696f6e206f766572666c6f770000815250610e47565b905092915050565b600080831415610a585760009050610ac5565b6000828402905082848281610a6957fe5b0414610ac0576040517f08c379a0000000000000000000000000000000000000000000000000000000008152600401808060200182810382526021815260200180610fce6021913960400191505060405180910390fd5b809150505b92915050565b6000610b0d83836040518060400160405280601a81526020017f536166654d6174683a206469766973696f6e206279207a65726f000000000000815250610f07565b905092915050565b600080828401905083811015610b93576040517f08c379a000000000000000000000000000000000000000000000000000000000815260040180806020018281038252601b8152602001807f536166654d6174683a206164646974696f6e206f766572666c6f77000000000081525060200191505060405180910390fd5b8091505092915050565b60008060009054906101000a900473ffffffffffffffffffffffffffffffffffffffff1673ffffffffffffffffffffffffffffffffffffffff166370a08231306040518263ffffffff1660e01b8152600401808273ffffffffffffffffffffffffffffffffffffffff16815260200191505060206040518083038186803b158015610c2757600080fd5b505afa158015610c3b573d6000803e3d6000fd5b505050506040513d6020811015610c5157600080fd5b8101908080519060200190929190505050905080821115610d595760008054906101000a900473ffffffffffffffffffffffffffffffffffffffff1673ffffffffffffffffffffffffffffffffffffffff1663a9059cbb84836040518363ffffffff1660e01b8152600401808373ffffffffffffffffffffffffffffffffffffffff16815260200182815260200192505050602060405180830381600087803b158015610cfd57600080fd5b505af1158015610d11573d6000803e3d6000fd5b505050506040513d6020811015610d2757600080fd5b810190808051906020019092919050505050610d4e816005546109fb90919063ffffffff16565b600581905550610e42565b60008054906101000a900473ffffffffffffffffffffffffffffffffffffffff1673ffffffffffffffffffffffffffffffffffffffff1663a9059cbb84846040518363ffffffff1660e01b8152600401808373ffffffffffffffffffffffffffffffffffffffff16815260200182815260200192505050602060405180830381600087803b158015610dea57600080fd5b505af1158015610dfe573d6000803e3d6000fd5b505050506040513d6020811015610e1457600080fd5b810190808051906020019092919050505050610e3b826005546109fb90919063ffffffff16565b6005819055505b505050565b6000838311158290610ef4576040517f08c379a00000000000000000000000000000000000000000000000000000000081526004018080602001828103825283818151815260200191508051906020019080838360005b83811015610eb9578082015181840152602081019050610e9e565b50505050905090810190601f168015610ee65780820380516001836020036101000a031916815260200191505b509250505060405180910390fd5b5060008385039050809150509392505050565b60008083118290610fb3576040517f08c379a00000000000000000000000000000000000000000000000000000000081526004018080602001828103825283818151815260200191508051906020019080838360005b83811015610f78578082015181840152602081019050610f5d565b50505050905090810190601f168015610fa55780820380516001836020036101000a031916815260200191505b509250505060405180910390fd5b506000838581610fbf57fe5b04905080915050939250505056fe536166654d6174683a206d756c7469706c69636174696f6e206f766572666c6f77a264697066735822122068c2a3abaac507af8c4ebb66d8efc7cc278079f15f4c702949436a0cb90443f064736f6c634300060c0033",
  "immutableReferences": {},
  "source": "// \"SPDX-License-Identifier: UNLICENSED\"\npragma solidity 0.6.12;\n\nimport \"@openzeppelin/contracts/token/ERC20/IERC20.sol\";\nimport \"@openzeppelin/contracts/math/SafeMath.sol\";\n\n\ncontract LoadRestaurant {\n    using SafeMath for uint256;\n    event Enter(address indexed user, uint256 amount);\n    event Leave(address indexed user, uint256 amount);\n\n    IERC20 public load;\n\n    uint256 public reductionPerBlock;\n    uint256 public multiplier;\n    uint256 public lastMultiplerProcessBlock;\n\n    uint256 public accLoadPerShare;\n    uint256 public ackLoadBalance;\n    uint256 public totalShares;\n\n    struct UserInfo {\n        uint256 amount; // LOAD stake amount\n        uint256 share;\n        uint256 rewardDebt;\n    }\n\n    mapping (address => UserInfo) public userInfo;\n\n    constructor(IERC20 _load, uint256 _reductionPerBlock) public {\n        load = _load;\n        reductionPerBlock = _reductionPerBlock; // Use 999999390274979584 for 10% per month\n        multiplier = 1e18; // Should be good for 20 years\n        lastMultiplerProcessBlock = block.number;\n    }\n\n    // Clean the restaurant. Called whenever someone enters or leaves.\n    function cleanup() public {\n        // Update multiplier\n        uint256 reductionTimes = block.number.sub(lastMultiplerProcessBlock);\n        uint256 fraction = 1e18;\n        uint256 acc = reductionPerBlock;\n        while (reductionTimes > 0) {\n            if (reductionTimes & 1 != 0) {\n                fraction = fraction.mul(acc).div(1e18);\n            }\n            acc = acc.mul(acc).div(1e18);\n            reductionTimes = reductionTimes / 2;\n        }\n        multiplier = multiplier.mul(fraction).div(1e18);\n        lastMultiplerProcessBlock = block.number;\n        // Update accLoadPerShare / ackLoadBalance\n        if (totalShares > 0) {\n            uint256 additionalLoad = load.balanceOf(address(this)).sub(ackLoadBalance);\n            accLoadPerShare = accLoadPerShare.add(additionalLoad.mul(1e12).div(totalShares));\n            ackLoadBalance = ackLoadBalance.add(additionalLoad);\n        }\n    }\n\n    // Get user pending reward. May be outdated until someone calls cleanup.\n    function getPendingReward(address _user) public view returns (uint256) {\n        UserInfo storage user = userInfo[_user];\n        return user.share.mul(accLoadPerShare).div(1e12).sub(user.rewardDebt);\n    }\n\n    // Enter the restaurant. Pay some LOADs. Earn some shares.\n    function enter(uint256 _amount) public {\n        cleanup();\n        safeLoadTransfer(msg.sender, getPendingReward(msg.sender));\n        load.transferFrom(msg.sender, address(this), _amount);\n        ackLoadBalance = ackLoadBalance.add(_amount);\n        UserInfo storage user = userInfo[msg.sender];\n        uint256 moreShare = _amount.mul(multiplier).div(1e18);\n        user.amount = user.amount.add(_amount);\n        totalShares = totalShares.add(moreShare);\n        user.share = user.share.add(moreShare);\n        user.rewardDebt = user.share.mul(accLoadPerShare).div(1e12);\n        emit Enter(msg.sender, _amount);\n    }\n\n    // Leave the restaurant. Claim back your LOADs.\n    function leave(uint256 _amount) public {\n        cleanup();\n        safeLoadTransfer(msg.sender, getPendingReward(msg.sender));\n        UserInfo storage user = userInfo[msg.sender];\n        uint256 lessShare = user.share.mul(_amount).div(user.amount);\n        user.amount = user.amount.sub(_amount);\n        totalShares = totalShares.sub(lessShare);\n        user.share = user.share.sub(lessShare);\n        user.rewardDebt = user.share.mul(accLoadPerShare).div(1e12);\n        safeLoadTransfer(msg.sender, _amount);\n        emit Leave(msg.sender, _amount);\n    }\n\n    // Safe load transfer function, just in case if rounding error causes pool to not have enough LOADs.\n    function safeLoadTransfer(address _to, uint256 _amount) internal {\n        uint256 loadBal = load.balanceOf(address(this));\n        if (_amount > loadBal) {\n            load.transfer(_to, loadBal);\n            ackLoadBalance = ackLoadBalance.sub(loadBal);\n        } else {\n            load.transfer(_to, _amount);\n            ackLoadBalance = ackLoadBalance.sub(_amount);\n        }\n    }\n}",
  "sourcePath": "/Users/mac/Documents/Code/apps/solidity/defi/reloaded/contracts/SushiRestaurant.sol",
  "compiler": {
    "name": "solc",
    "version": "0.6.12+commit.27d51765.Emscripten.clang"
  },
  "schemaVersion": "3.3.2",
  "updatedAt": "2021-01-07T13:33:43.593Z",
  "devdoc": {
    "kind": "dev",
    "methods": {},
    "version": 1
  },
  "userdoc": {
    "kind": "user",
    "methods": {},
    "version": 1
  }
}