{
  "contractName": "LoadTreasury",
  "abi": [
    {
      "inputs": [],
      "name": "factory",
      "outputs": [
        {
          "internalType": "contract IUniswapV2Factory",
          "name": "",
          "type": "address"
        }
      ],
      "stateMutability": "view",
      "type": "function",
      "constant": true
    },
    {
      "inputs": [],
      "name": "load",
      "outputs": [
        {
          "internalType": "address",
          "name": "",
          "type": "address"
        }
      ],
      "stateMutability": "view",
      "type": "function",
      "constant": true
    },
    {
      "inputs": [],
      "name": "vault",
      "outputs": [
        {
          "internalType": "address",
          "name": "",
          "type": "address"
        }
      ],
      "stateMutability": "view",
      "type": "function",
      "constant": true
    },
    {
      "inputs": [],
      "name": "weth",
      "outputs": [
        {
          "internalType": "address",
          "name": "",
          "type": "address"
        }
      ],
      "stateMutability": "view",
      "type": "function",
      "constant": true
    },
    {
      "inputs": [
        {
          "internalType": "address",
          "name": "token0",
          "type": "address"
        },
        {
          "internalType": "address",
          "name": "token1",
          "type": "address"
        }
      ],
      "name": "convert",
      "outputs": [],
      "stateMutability": "nonpayable",
      "type": "function"
    }
  ],
  "bytecode": "0x608060405234801561001057600080fd5b506118b3806100206000396000f3fe608060405234801561001057600080fd5b50600436106100575760003560e01c80633fc8cef31461005c57806386d5c4be14610090578063bd1b820c146100c4578063c45a015514610128578063fbfa77cf1461015c575b600080fd5b610064610190565b604051808273ffffffffffffffffffffffffffffffffffffffff16815260200191505060405180910390f35b6100986101a8565b604051808273ffffffffffffffffffffffffffffffffffffffff16815260200191505060405180910390f35b610126600480360360408110156100da57600080fd5b81019080803573ffffffffffffffffffffffffffffffffffffffff169060200190929190803573ffffffffffffffffffffffffffffffffffffffff1690602001909291905050506101c0565b005b610130610623565b604051808273ffffffffffffffffffffffffffffffffffffffff16815260200191505060405180910390f35b61016461063b565b604051808273ffffffffffffffffffffffffffffffffffffffff16815260200191505060405180910390f35b73c02aaa39b223fe8d0a0e5c4f27ead9083c756cc281565b736b3595068778dd592e39a122f4f5a5cf09c90fe281565b3273ffffffffffffffffffffffffffffffffffffffff163373ffffffffffffffffffffffffffffffffffffffff1614610261576040517f08c379a000000000000000000000000000000000000000000000000000000000815260040180806020018281038252601c8152602001807f646f206e6f7420636f6e766572742066726f6d20636f6e74726163740000000081525060200191505060405180910390fd5b600073c0aee478e3658e2610c5f7a4a2e1777ce9e4f2ac73ffffffffffffffffffffffffffffffffffffffff1663e6a4390584846040518363ffffffff1660e01b8152600401808373ffffffffffffffffffffffffffffffffffffffff1681526020018273ffffffffffffffffffffffffffffffffffffffff1681526020019250505060206040518083038186803b1580156102fc57600080fd5b505afa158015610310573d6000803e3d6000fd5b505050506040513d602081101561032657600080fd5b810190808051906020019092919050505090508073ffffffffffffffffffffffffffffffffffffffff1663a9059cbb828373ffffffffffffffffffffffffffffffffffffffff166370a08231306040518263ffffffff1660e01b8152600401808273ffffffffffffffffffffffffffffffffffffffff16815260200191505060206040518083038186803b1580156103bd57600080fd5b505afa1580156103d1573d6000803e3d6000fd5b505050506040513d60208110156103e757600080fd5b81019080805190602001909291905050506040518363ffffffff1660e01b8152600401808373ffffffffffffffffffffffffffffffffffffffff16815260200182815260200192505050602060405180830381600087803b15801561044b57600080fd5b505af115801561045f573d6000803e3d6000fd5b505050506040513d602081101561047557600080fd5b8101908080519060200190929190505050506000808273ffffffffffffffffffffffffffffffffffffffff166389afcb44306040518263ffffffff1660e01b8152600401808273ffffffffffffffffffffffffffffffffffffffff1681526020019150506040805180830381600087803b1580156104f257600080fd5b505af1158015610506573d6000803e3d6000fd5b505050506040513d604081101561051c57600080fd5b810190808051906020019092919080519060200190929190505050915091508273ffffffffffffffffffffffffffffffffffffffff16630dfe16816040518163ffffffff1660e01b815260040160206040518083038186803b15801561058157600080fd5b505afa158015610595573d6000803e3d6000fd5b505050506040513d60208110156105ab57600080fd5b810190808051906020019092919050505073ffffffffffffffffffffffffffffffffffffffff168573ffffffffffffffffffffffffffffffffffffffff16146105f957808280925081935050505b60006106058583610653565b61060f8785610653565b01905061061b81610dd4565b505050505050565b73c0aee478e3658e2610c5f7a4a2e1777ce9e4f2ac81565b738798249c2e607446efb7ad49ec89dd1865ff427281565b6000736b3595068778dd592e39a122f4f5a5cf09c90fe273ffffffffffffffffffffffffffffffffffffffff168373ffffffffffffffffffffffffffffffffffffffff1614156106c5576106bc83738798249c2e607446efb7ad49ec89dd1865ff42728461129d565b60009050610dce565b73c02aaa39b223fe8d0a0e5c4f27ead9083c756cc273ffffffffffffffffffffffffffffffffffffffff168373ffffffffffffffffffffffffffffffffffffffff16141561081b576108138373c0aee478e3658e2610c5f7a4a2e1777ce9e4f2ac73ffffffffffffffffffffffffffffffffffffffff1663e6a4390573c02aaa39b223fe8d0a0e5c4f27ead9083c756cc2736b3595068778dd592e39a122f4f5a5cf09c90fe26040518363ffffffff1660e01b8152600401808373ffffffffffffffffffffffffffffffffffffffff1681526020018273ffffffffffffffffffffffffffffffffffffffff1681526020019250505060206040518083038186803b1580156107d257600080fd5b505afa1580156107e6573d6000803e3d6000fd5b505050506040513d60208110156107fc57600080fd5b81019080805190602001909291905050508461129d565b819050610dce565b600073c0aee478e3658e2610c5f7a4a2e1777ce9e4f2ac73ffffffffffffffffffffffffffffffffffffffff1663e6a439058573c02aaa39b223fe8d0a0e5c4f27ead9083c756cc26040518363ffffffff1660e01b8152600401808373ffffffffffffffffffffffffffffffffffffffff1681526020018273ffffffffffffffffffffffffffffffffffffffff1681526020019250505060206040518083038186803b1580156108ca57600080fd5b505afa1580156108de573d6000803e3d6000fd5b505050506040513d60208110156108f457600080fd5b81019080805190602001909291905050509050600073ffffffffffffffffffffffffffffffffffffffff168173ffffffffffffffffffffffffffffffffffffffff161415610946576000915050610dce565b6000808273ffffffffffffffffffffffffffffffffffffffff16630902f1ac6040518163ffffffff1660e01b815260040160606040518083038186803b15801561098f57600080fd5b505afa1580156109a3573d6000803e3d6000fd5b505050506040513d60608110156109b957600080fd5b81019080805190602001909291908051906020019092919080519060200190929190505050506dffffffffffffffffffffffffffff1691506dffffffffffffffffffffffffffff16915060008373ffffffffffffffffffffffffffffffffffffffff16630dfe16816040518163ffffffff1660e01b815260040160206040518083038186803b158015610a4b57600080fd5b505afa158015610a5f573d6000803e3d6000fd5b505050506040513d6020811015610a7557600080fd5b810190808051906020019092919050505090506000808873ffffffffffffffffffffffffffffffffffffffff168373ffffffffffffffffffffffffffffffffffffffff1614610ac5578385610ac8565b84845b915091506000610ae36103e58a6112cd90919063ffffffff16565b90506000610b0e82610b006103e8876112cd90919063ffffffff16565b61135390919063ffffffff16565b610b2184846112cd90919063ffffffff16565b81610b2857fe5b0490506000808c73ffffffffffffffffffffffffffffffffffffffff168773ffffffffffffffffffffffffffffffffffffffff1614610b6957826000610b6d565b6000835b91509150610b7c8d8b8e61129d565b8973ffffffffffffffffffffffffffffffffffffffff1663022c0d9f838373c0aee478e3658e2610c5f7a4a2e1777ce9e4f2ac73ffffffffffffffffffffffffffffffffffffffff1663e6a4390573c02aaa39b223fe8d0a0e5c4f27ead9083c756cc2736b3595068778dd592e39a122f4f5a5cf09c90fe26040518363ffffffff1660e01b8152600401808373ffffffffffffffffffffffffffffffffffffffff1681526020018273ffffffffffffffffffffffffffffffffffffffff1681526020019250505060206040518083038186803b158015610c5b57600080fd5b505afa158015610c6f573d6000803e3d6000fd5b505050506040513d6020811015610c8557600080fd5b8101908080519060200190929190505050600067ffffffffffffffff81118015610cae57600080fd5b506040519080825280601f01601f191660200182016040528015610ce15781602001600182028036833780820191505090505b506040518563ffffffff1660e01b8152600401808581526020018481526020018373ffffffffffffffffffffffffffffffffffffffff16815260200180602001828103825283818151815260200191508051906020019080838360005b83811015610d59578082015181840152602081019050610d3e565b50505050905090810190601f168015610d865780820380516001836020036101000a031916815260200191505b5095505050505050600060405180830381600087803b158015610da857600080fd5b505af1158015610dbc573d6000803e3d6000fd5b50505050829a50505050505050505050505b92915050565b600073c0aee478e3658e2610c5f7a4a2e1777ce9e4f2ac73ffffffffffffffffffffffffffffffffffffffff1663e6a4390573c02aaa39b223fe8d0a0e5c4f27ead9083c756cc2736b3595068778dd592e39a122f4f5a5cf09c90fe26040518363ffffffff1660e01b8152600401808373ffffffffffffffffffffffffffffffffffffffff1681526020018273ffffffffffffffffffffffffffffffffffffffff1681526020019250505060206040518083038186803b158015610e9757600080fd5b505afa158015610eab573d6000803e3d6000fd5b505050506040513d6020811015610ec157600080fd5b810190808051906020019092919050505090506000808273ffffffffffffffffffffffffffffffffffffffff16630902f1ac6040518163ffffffff1660e01b815260040160606040518083038186803b158015610f1d57600080fd5b505afa158015610f31573d6000803e3d6000fd5b505050506040513d6060811015610f4757600080fd5b81019080805190602001909291908051906020019092919080519060200190929190505050506dffffffffffffffffffffffffffff1691506dffffffffffffffffffffffffffff16915060008373ffffffffffffffffffffffffffffffffffffffff16630dfe16816040518163ffffffff1660e01b815260040160206040518083038186803b158015610fd957600080fd5b505afa158015610fed573d6000803e3d6000fd5b505050506040513d602081101561100357600080fd5b8101908080519060200190929190505050905060008073c02aaa39b223fe8d0a0e5c4f27ead9083c756cc273ffffffffffffffffffffffffffffffffffffffff168373ffffffffffffffffffffffffffffffffffffffff161461106757838561106a565b84845b9150915060006110856103e5896112cd90919063ffffffff16565b9050600061109c83836112cd90919063ffffffff16565b905060006110c7836110b96103e8886112cd90919063ffffffff16565b61135390919063ffffffff16565b905060008183816110d457fe5b04905060008073c02aaa39b223fe8d0a0e5c4f27ead9083c756cc273ffffffffffffffffffffffffffffffffffffffff168973ffffffffffffffffffffffffffffffffffffffff16146111295782600061112d565b6000835b915091508b73ffffffffffffffffffffffffffffffffffffffff1663022c0d9f8383738798249c2e607446efb7ad49ec89dd1865ff4272600067ffffffffffffffff8111801561117c57600080fd5b506040519080825280601f01601f1916602001820160405280156111af5781602001600182028036833780820191505090505b506040518563ffffffff1660e01b8152600401808581526020018481526020018373ffffffffffffffffffffffffffffffffffffffff16815260200180602001828103825283818151815260200191508051906020019080838360005b8381101561122757808201518184015260208101905061120c565b50505050905090810190601f1680156112545780820380516001836020036101000a031916815260200191505b5095505050505050600060405180830381600087803b15801561127657600080fd5b505af115801561128a573d6000803e3d6000fd5b5050505050505050505050505050505050565b6112c882828573ffffffffffffffffffffffffffffffffffffffff166113db9092919063ffffffff16565b505050565b6000808314156112e0576000905061134d565b60008284029050828482816112f157fe5b0414611348576040517f08c379a00000000000000000000000000000000000000000000000000000000081526004018080602001828103825260218152602001806118336021913960400191505060405180910390fd5b809150505b92915050565b6000808284019050838110156113d1576040517f08c379a000000000000000000000000000000000000000000000000000000000815260040180806020018281038252601b8152602001807f536166654d6174683a206164646974696f6e206f766572666c6f77000000000081525060200191505060405180910390fd5b8091505092915050565b6114788363a9059cbb60e01b8484604051602401808373ffffffffffffffffffffffffffffffffffffffff16815260200182815260200192505050604051602081830303815290604052907bffffffffffffffffffffffffffffffffffffffffffffffffffffffff19166020820180517bffffffffffffffffffffffffffffffffffffffffffffffffffffffff838183161783525050505061147d565b505050565b60606114df826040518060400160405280602081526020017f5361666545524332303a206c6f772d6c6576656c2063616c6c206661696c65648152508573ffffffffffffffffffffffffffffffffffffffff1661156c9092919063ffffffff16565b90506000815111156115675780806020019051602081101561150057600080fd5b8101908080519060200190929190505050611566576040517f08c379a000000000000000000000000000000000000000000000000000000000815260040180806020018281038252602a815260200180611854602a913960400191505060405180910390fd5b5b505050565b606061157b8484600085611584565b90509392505050565b6060824710156115df576040517f08c379a000000000000000000000000000000000000000000000000000000000815260040180806020018281038252602681526020018061180d6026913960400191505060405180910390fd5b6115e88561172d565b61165a576040517f08c379a000000000000000000000000000000000000000000000000000000000815260040180806020018281038252601d8152602001807f416464726573733a2063616c6c20746f206e6f6e2d636f6e747261637400000081525060200191505060405180910390fd5b600060608673ffffffffffffffffffffffffffffffffffffffff1685876040518082805190602001908083835b602083106116aa5780518252602082019150602081019050602083039250611687565b6001836020036101000a03801982511681845116808217855250505050505090500191505060006040518083038185875af1925050503d806000811461170c576040519150601f19603f3d011682016040523d82523d6000602084013e611711565b606091505b5091509150611721828286611740565b92505050949350505050565b600080823b905060008111915050919050565b6060831561175057829050611805565b6000835111156117635782518084602001fd5b816040517f08c379a00000000000000000000000000000000000000000000000000000000081526004018080602001828103825283818151815260200191508051906020019080838360005b838110156117ca5780820151818401526020810190506117af565b50505050905090810190601f1680156117f75780820380516001836020036101000a031916815260200191505b509250505060405180910390fd5b939250505056fe416464726573733a20696e73756666696369656e742062616c616e636520666f722063616c6c536166654d6174683a206d756c7469706c69636174696f6e206f766572666c6f775361666545524332303a204552433230206f7065726174696f6e20646964206e6f742073756363656564a26469706673582212202368f6c6df2265f83f0ac1750e727dc7b969cc4d3586ce3911df65bcc0911d7664736f6c634300060c0033",
  "immutableReferences": {},
  "source": "// \"SPDX-License-Identifier: UNLICENSED\"\npragma solidity 0.6.12;\n\nimport \"@openzeppelin/contracts/token/ERC20/IERC20.sol\";\nimport \"@openzeppelin/contracts/token/ERC20/SafeERC20.sol\";\nimport \"@openzeppelin/contracts/math/SafeMath.sol\";\nimport \"./uniswapv2/interfaces/IUniswapV2ERC20.sol\";\nimport \"./uniswapv2/interfaces/IUniswapV2Pair.sol\";\nimport \"./uniswapv2/interfaces/IUniswapV2Factory.sol\";\n\n// LoadTreasury is Minter's left hand and kinda a wizard. He can cook up Load from pretty much anything!\n//\n// This contract handles \"serving up\" rewards for xLoad holders by trading tokens collected from fees for Load.\n\ncontract LoadTreasury {\n    using SafeMath for uint256;\n    using SafeERC20 for IERC20;\n\n    IUniswapV2Factory public constant factory = IUniswapV2Factory(0xC0AEe478e3658e2610c5F7A4A2E1777cE9e4f2Ac);\n    address public constant vault = 0x8798249c2E607446EfB7Ad49eC89dD1865Ff4272;\n    address public constant load = 0x6B3595068778DD592e39A122f4f5a5cF09C90fE2;\n    address public constant weth = 0xC02aaA39b223FE8D0A0e5C4F27eAD9083C756Cc2;\n\n    function convert(address token0, address token1) public {\n        // At least we try to make front-running harder to do.\n        require(msg.sender == tx.origin, \"do not convert from contract\");\n        \n        IUniswapV2Pair pair = IUniswapV2Pair(factory.getPair(token0, token1));\n        pair.transfer(address(pair), pair.balanceOf(address(this)));\n        (uint amount0, uint amount1) = pair.burn(address(this));\n        if (token0 != pair.token0()) {\n            (amount0, amount1) = (amount1, amount0);\n        }\n        uint256 wethAmount = _toWETH(token0, amount0) + _toWETH(token1, amount1);\n        _toLOAD(wethAmount);\n    }\n\n    function _toWETH(address token, uint amountIn) internal returns (uint256) {\n        if (token == load) {\n            _safeTransfer(token, vault, amountIn);\n            return 0;\n        }\n        if (token == weth) {\n            _safeTransfer(token, factory.getPair(weth, load), amountIn);\n            return amountIn;\n        }\n        IUniswapV2Pair pair = IUniswapV2Pair(factory.getPair(token, weth));\n        if (address(pair) == address(0)) {\n            return 0;\n        }\n        (uint reserve0, uint reserve1,) = pair.getReserves();\n        address token0 = pair.token0();\n        (uint reserveIn, uint reserveOut) = token0 == token ? (reserve0, reserve1) : (reserve1, reserve0);\n        uint amountInWithFee = amountIn.mul(997);\n        uint amountOut = amountInWithFee.mul(reserveOut) / reserveIn.mul(1000).add(amountInWithFee);\n        (uint amount0Out, uint amount1Out) = token0 == token ? (uint(0), amountOut) : (amountOut, uint(0));\n        _safeTransfer(token, address(pair), amountIn);\n        pair.swap(amount0Out, amount1Out, factory.getPair(weth, load), new bytes(0));\n        return amountOut;\n    }\n\n    function _toLOAD(uint256 amountIn) internal {\n        IUniswapV2Pair pair = IUniswapV2Pair(factory.getPair(weth, load));\n        (uint reserve0, uint reserve1,) = pair.getReserves();\n        address token0 = pair.token0();\n        (uint reserveIn, uint reserveOut) = token0 == weth ? (reserve0, reserve1) : (reserve1, reserve0);\n        uint amountInWithFee = amountIn.mul(997);\n        uint numerator = amountInWithFee.mul(reserveOut);\n        uint denominator = reserveIn.mul(1000).add(amountInWithFee);\n        uint amountOut = numerator / denominator;\n        (uint amount0Out, uint amount1Out) = token0 == weth ? (uint(0), amountOut) : (amountOut, uint(0));\n        pair.swap(amount0Out, amount1Out, vault, new bytes(0));\n    }\n\n    function _safeTransfer(address token, address to, uint256 amount) internal {\n        IERC20(token).safeTransfer(to, amount);\n    }\n}\n",
  "sourcePath": "/Users/mac/Documents/Code/apps/solidity/defi/reloaded/contracts/LoadTreasury.sol",
  "compiler": {
    "name": "solc",
    "version": "0.6.12+commit.27d51765.Emscripten.clang"
  },
  "schemaVersion": "3.3.2",
  "updatedAt": "2021-01-07T13:44:54.538Z",
  "networkType": "ethereum",
  "devdoc": {
    "kind": "dev",
    "methods": {},
    "version": 1
  },
  "userdoc": {
    "kind": "user",
    "methods": {},
    "version": 1
  }
}