{
  "contractName": "Minter",
  "abi": [
    {
      "inputs": [
        {
          "internalType": "contract LoadToken",
          "name": "_load",
          "type": "address"
        },
        {
          "internalType": "address",
          "name": "_devaddr",
          "type": "address"
        },
        {
          "internalType": "uint256",
          "name": "_loadPerBlock",
          "type": "uint256"
        },
        {
          "internalType": "uint256",
          "name": "_startBlock",
          "type": "uint256"
        },
        {
          "internalType": "uint256",
          "name": "_bonusEndBlock",
          "type": "uint256"
        }
      ],
      "stateMutability": "nonpayable",
      "type": "constructor"
    },
    {
      "anonymous": false,
      "inputs": [
        {
          "indexed": true,
          "internalType": "address",
          "name": "user",
          "type": "address"
        },
        {
          "indexed": true,
          "internalType": "uint256",
          "name": "pid",
          "type": "uint256"
        },
        {
          "indexed": false,
          "internalType": "uint256",
          "name": "amount",
          "type": "uint256"
        }
      ],
      "name": "Deposit",
      "type": "event"
    },
    {
      "anonymous": false,
      "inputs": [
        {
          "indexed": true,
          "internalType": "address",
          "name": "user",
          "type": "address"
        },
        {
          "indexed": true,
          "internalType": "uint256",
          "name": "pid",
          "type": "uint256"
        },
        {
          "indexed": false,
          "internalType": "uint256",
          "name": "amount",
          "type": "uint256"
        }
      ],
      "name": "EmergencyWithdraw",
      "type": "event"
    },
    {
      "anonymous": false,
      "inputs": [
        {
          "indexed": true,
          "internalType": "address",
          "name": "previousOwner",
          "type": "address"
        },
        {
          "indexed": true,
          "internalType": "address",
          "name": "newOwner",
          "type": "address"
        }
      ],
      "name": "OwnershipTransferred",
      "type": "event"
    },
    {
      "anonymous": false,
      "inputs": [
        {
          "indexed": true,
          "internalType": "address",
          "name": "user",
          "type": "address"
        },
        {
          "indexed": true,
          "internalType": "uint256",
          "name": "pid",
          "type": "uint256"
        },
        {
          "indexed": false,
          "internalType": "uint256",
          "name": "amount",
          "type": "uint256"
        }
      ],
      "name": "Withdraw",
      "type": "event"
    },
    {
      "inputs": [],
      "name": "BONUS_MULTIPLIER",
      "outputs": [
        {
          "internalType": "uint256",
          "name": "",
          "type": "uint256"
        }
      ],
      "stateMutability": "view",
      "type": "function",
      "constant": true
    },
    {
      "inputs": [],
      "name": "bonusEndBlock",
      "outputs": [
        {
          "internalType": "uint256",
          "name": "",
          "type": "uint256"
        }
      ],
      "stateMutability": "view",
      "type": "function",
      "constant": true
    },
    {
      "inputs": [],
      "name": "devaddr",
      "outputs": [
        {
          "internalType": "address",
          "name": "",
          "type": "address"
        }
      ],
      "stateMutability": "view",
      "type": "function",
      "constant": true
    },
    {
      "inputs": [],
      "name": "load",
      "outputs": [
        {
          "internalType": "contract LoadToken",
          "name": "",
          "type": "address"
        }
      ],
      "stateMutability": "view",
      "type": "function",
      "constant": true
    },
    {
      "inputs": [],
      "name": "loadPerBlock",
      "outputs": [
        {
          "internalType": "uint256",
          "name": "",
          "type": "uint256"
        }
      ],
      "stateMutability": "view",
      "type": "function",
      "constant": true
    },
    {
      "inputs": [],
      "name": "migrator",
      "outputs": [
        {
          "internalType": "contract IMigrator",
          "name": "",
          "type": "address"
        }
      ],
      "stateMutability": "view",
      "type": "function",
      "constant": true
    },
    {
      "inputs": [],
      "name": "owner",
      "outputs": [
        {
          "internalType": "address",
          "name": "",
          "type": "address"
        }
      ],
      "stateMutability": "view",
      "type": "function",
      "constant": true
    },
    {
      "inputs": [
        {
          "internalType": "uint256",
          "name": "",
          "type": "uint256"
        }
      ],
      "name": "poolInfo",
      "outputs": [
        {
          "internalType": "contract IERC20",
          "name": "lpToken",
          "type": "address"
        },
        {
          "internalType": "uint256",
          "name": "allocPoint",
          "type": "uint256"
        },
        {
          "internalType": "uint256",
          "name": "lastRewardBlock",
          "type": "uint256"
        },
        {
          "internalType": "uint256",
          "name": "accLoadPerShare",
          "type": "uint256"
        }
      ],
      "stateMutability": "view",
      "type": "function",
      "constant": true
    },
    {
      "inputs": [],
      "name": "renounceOwnership",
      "outputs": [],
      "stateMutability": "nonpayable",
      "type": "function"
    },
    {
      "inputs": [],
      "name": "startBlock",
      "outputs": [
        {
          "internalType": "uint256",
          "name": "",
          "type": "uint256"
        }
      ],
      "stateMutability": "view",
      "type": "function",
      "constant": true
    },
    {
      "inputs": [],
      "name": "totalAllocPoint",
      "outputs": [
        {
          "internalType": "uint256",
          "name": "",
          "type": "uint256"
        }
      ],
      "stateMutability": "view",
      "type": "function",
      "constant": true
    },
    {
      "inputs": [
        {
          "internalType": "address",
          "name": "newOwner",
          "type": "address"
        }
      ],
      "name": "transferOwnership",
      "outputs": [],
      "stateMutability": "nonpayable",
      "type": "function"
    },
    {
      "inputs": [
        {
          "internalType": "uint256",
          "name": "",
          "type": "uint256"
        },
        {
          "internalType": "address",
          "name": "",
          "type": "address"
        }
      ],
      "name": "userInfo",
      "outputs": [
        {
          "internalType": "uint256",
          "name": "amount",
          "type": "uint256"
        },
        {
          "internalType": "uint256",
          "name": "rewardDebt",
          "type": "uint256"
        }
      ],
      "stateMutability": "view",
      "type": "function",
      "constant": true
    },
    {
      "inputs": [],
      "name": "poolLength",
      "outputs": [
        {
          "internalType": "uint256",
          "name": "",
          "type": "uint256"
        }
      ],
      "stateMutability": "view",
      "type": "function",
      "constant": true
    },
    {
      "inputs": [
        {
          "internalType": "uint256",
          "name": "_allocPoint",
          "type": "uint256"
        },
        {
          "internalType": "contract IERC20",
          "name": "_lpToken",
          "type": "address"
        },
        {
          "internalType": "bool",
          "name": "_withUpdate",
          "type": "bool"
        }
      ],
      "name": "add",
      "outputs": [],
      "stateMutability": "nonpayable",
      "type": "function"
    },
    {
      "inputs": [
        {
          "internalType": "uint256",
          "name": "_pid",
          "type": "uint256"
        },
        {
          "internalType": "uint256",
          "name": "_allocPoint",
          "type": "uint256"
        },
        {
          "internalType": "bool",
          "name": "_withUpdate",
          "type": "bool"
        }
      ],
      "name": "set",
      "outputs": [],
      "stateMutability": "nonpayable",
      "type": "function"
    },
    {
      "inputs": [
        {
          "internalType": "contract IMigrator",
          "name": "_migrator",
          "type": "address"
        }
      ],
      "name": "setMigrator",
      "outputs": [],
      "stateMutability": "nonpayable",
      "type": "function"
    },
    {
      "inputs": [
        {
          "internalType": "uint256",
          "name": "_pid",
          "type": "uint256"
        }
      ],
      "name": "migrate",
      "outputs": [],
      "stateMutability": "nonpayable",
      "type": "function"
    },
    {
      "inputs": [
        {
          "internalType": "uint256",
          "name": "_from",
          "type": "uint256"
        },
        {
          "internalType": "uint256",
          "name": "_to",
          "type": "uint256"
        }
      ],
      "name": "getMultiplier",
      "outputs": [
        {
          "internalType": "uint256",
          "name": "",
          "type": "uint256"
        }
      ],
      "stateMutability": "view",
      "type": "function",
      "constant": true
    },
    {
      "inputs": [
        {
          "internalType": "uint256",
          "name": "_pid",
          "type": "uint256"
        },
        {
          "internalType": "address",
          "name": "_user",
          "type": "address"
        }
      ],
      "name": "pendingLoad",
      "outputs": [
        {
          "internalType": "uint256",
          "name": "",
          "type": "uint256"
        }
      ],
      "stateMutability": "view",
      "type": "function",
      "constant": true
    },
    {
      "inputs": [],
      "name": "massUpdatePools",
      "outputs": [],
      "stateMutability": "nonpayable",
      "type": "function"
    },
    {
      "inputs": [
        {
          "internalType": "uint256",
          "name": "_pid",
          "type": "uint256"
        }
      ],
      "name": "updatePool",
      "outputs": [],
      "stateMutability": "nonpayable",
      "type": "function"
    },
    {
      "inputs": [
        {
          "internalType": "uint256",
          "name": "_pid",
          "type": "uint256"
        },
        {
          "internalType": "uint256",
          "name": "_amount",
          "type": "uint256"
        }
      ],
      "name": "deposit",
      "outputs": [],
      "stateMutability": "nonpayable",
      "type": "function"
    },
    {
      "inputs": [
        {
          "internalType": "uint256",
          "name": "_pid",
          "type": "uint256"
        },
        {
          "internalType": "uint256",
          "name": "_amount",
          "type": "uint256"
        }
      ],
      "name": "withdraw",
      "outputs": [],
      "stateMutability": "nonpayable",
      "type": "function"
    },
    {
      "inputs": [
        {
          "internalType": "uint256",
          "name": "_pid",
          "type": "uint256"
        }
      ],
      "name": "emergencyWithdraw",
      "outputs": [],
      "stateMutability": "nonpayable",
      "type": "function"
    },
    {
      "inputs": [
        {
          "internalType": "address",
          "name": "_devaddr",
          "type": "address"
        }
      ],
      "name": "dev",
      "outputs": [],
      "stateMutability": "nonpayable",
      "type": "function"
    }
  ],
  "bytecode": "0x608060405260006008553480156200001657600080fd5b506040516200309038038062003090833981810160405260a08110156200003c57600080fd5b810190808051906020019092919080519060200190929190805190602001909291908051906020019092919080519060200190929190505050600062000087620001c760201b60201c565b9050806000806101000a81548173ffffffffffffffffffffffffffffffffffffffff021916908373ffffffffffffffffffffffffffffffffffffffff1602179055508073ffffffffffffffffffffffffffffffffffffffff16600073ffffffffffffffffffffffffffffffffffffffff167f8be0079c531659141344cd1fd0a4f28419497f9722a3daafe3b4186f6b6457e060405160405180910390a35084600160006101000a81548173ffffffffffffffffffffffffffffffffffffffff021916908373ffffffffffffffffffffffffffffffffffffffff16021790555083600260006101000a81548173ffffffffffffffffffffffffffffffffffffffff021916908373ffffffffffffffffffffffffffffffffffffffff1602179055508260048190555080600381905550816009819055505050505050620001cf565b600033905090565b612eb180620001df6000396000f3fe608060405234801561001057600080fd5b506004361061018e5760003560e01c806364482f79116100de5780638da5cb5b11610097578063bd5f6d4c11610071578063bd5f6d4c14610645578063d49e77cd14610663578063e2bbb15814610697578063f2fde38b146106cf5761018e565b80638da5cb5b1461055c5780638dbb1e3a1461059057806393f1a40b146105dc5761018e565b806364482f7914610444578063715018a6146104885780637cd07e471461049257806386d5c4be146104c65780638aa28550146104fa5780638d88a90e146105185761018e565b8063441a3e701161014b57806351eb05a61161012557806351eb05a61461037c5780635312ea8e146103aa5780635d4743f5146103d8578063630b5ba11461043a5761018e565b8063441a3e70146102f8578063454b06081461033057806348cd4cb11461035e5761018e565b8063081e3eda146101935780631526fe27146101b157806317caf6f11461021e5780631aed65531461023c5780631eaaa0451461025a57806323cf3118146102b4575b600080fd5b61019b610713565b6040518082815260200191505060405180910390f35b6101dd600480360360208110156101c757600080fd5b8101908080359060200190929190505050610720565b604051808573ffffffffffffffffffffffffffffffffffffffff16815260200184815260200183815260200182815260200194505050505060405180910390f35b61022661077d565b6040518082815260200191505060405180910390f35b610244610783565b6040518082815260200191505060405180910390f35b6102b26004803603606081101561027057600080fd5b8101908080359060200190929190803573ffffffffffffffffffffffffffffffffffffffff169060200190929190803515159060200190929190505050610789565b005b6102f6600480360360208110156102ca57600080fd5b81019080803573ffffffffffffffffffffffffffffffffffffffff169060200190929190505050610962565b005b61032e6004803603604081101561030e57600080fd5b810190808035906020019092919080359060200190929190505050610a6e565b005b61035c6004803603602081101561034657600080fd5b8101908080359060200190929190505050610ccc565b005b6103666110f6565b6040518082815260200191505060405180910390f35b6103a86004803603602081101561039257600080fd5b81019080803590602001909291905050506110fc565b005b6103d6600480360360208110156103c057600080fd5b8101908080359060200190929190505050611448565b005b610424600480360360408110156103ee57600080fd5b8101908080359060200190929190803573ffffffffffffffffffffffffffffffffffffffff16906020019092919050505061157c565b6040518082815260200191505060405180910390f35b6104426117c2565b005b6104866004803603606081101561045a57600080fd5b8101908080359060200190929190803590602001909291908035151590602001909291905050506117ef565b005b610490611939565b005b61049a611abf565b604051808273ffffffffffffffffffffffffffffffffffffffff16815260200191505060405180910390f35b6104ce611ae5565b604051808273ffffffffffffffffffffffffffffffffffffffff16815260200191505060405180910390f35b610502611b0b565b6040518082815260200191505060405180910390f35b61055a6004803603602081101561052e57600080fd5b81019080803573ffffffffffffffffffffffffffffffffffffffff169060200190929190505050611b10565b005b610564611c17565b604051808273ffffffffffffffffffffffffffffffffffffffff16815260200191505060405180910390f35b6105c6600480360360408110156105a657600080fd5b810190808035906020019092919080359060200190929190505050611c40565b6040518082815260200191505060405180910390f35b610628600480360360408110156105f257600080fd5b8101908080359060200190929190803573ffffffffffffffffffffffffffffffffffffffff169060200190929190505050611cf2565b604051808381526020018281526020019250505060405180910390f35b61064d611d23565b6040518082815260200191505060405180910390f35b61066b611d29565b604051808273ffffffffffffffffffffffffffffffffffffffff16815260200191505060405180910390f35b6106cd600480360360408110156106ad57600080fd5b810190808035906020019092919080359060200190929190505050611d4f565b005b610711600480360360208110156106e557600080fd5b81019080803573ffffffffffffffffffffffffffffffffffffffff169060200190929190505050611f43565b005b6000600680549050905090565b6006818154811061072d57fe5b90600052602060002090600402016000915090508060000160009054906101000a900473ffffffffffffffffffffffffffffffffffffffff16908060010154908060020154908060030154905084565b60085481565b60035481565b61079161214e565b73ffffffffffffffffffffffffffffffffffffffff1660008054906101000a900473ffffffffffffffffffffffffffffffffffffffff1673ffffffffffffffffffffffffffffffffffffffff1614610851576040517f08c379a00000000000000000000000000000000000000000000000000000000081526004018080602001828103825260208152602001807f4f776e61626c653a2063616c6c6572206973206e6f7420746865206f776e657281525060200191505060405180910390fd5b80156108605761085f6117c2565b5b6000600954431161087357600954610875565b435b905061088c8460085461215690919063ffffffff16565b600881905550600660405180608001604052808573ffffffffffffffffffffffffffffffffffffffff1681526020018681526020018381526020016000815250908060018154018082558091505060019003906000526020600020906004020160009091909190915060008201518160000160006101000a81548173ffffffffffffffffffffffffffffffffffffffff021916908373ffffffffffffffffffffffffffffffffffffffff160217905550602082015181600101556040820151816002015560608201518160030155505050505050565b61096a61214e565b73ffffffffffffffffffffffffffffffffffffffff1660008054906101000a900473ffffffffffffffffffffffffffffffffffffffff1673ffffffffffffffffffffffffffffffffffffffff1614610a2a576040517f08c379a00000000000000000000000000000000000000000000000000000000081526004018080602001828103825260208152602001807f4f776e61626c653a2063616c6c6572206973206e6f7420746865206f776e657281525060200191505060405180910390fd5b80600560006101000a81548173ffffffffffffffffffffffffffffffffffffffff021916908373ffffffffffffffffffffffffffffffffffffffff16021790555050565b600060068381548110610a7d57fe5b9060005260206000209060040201905060006007600085815260200190815260200160002060003373ffffffffffffffffffffffffffffffffffffffff1673ffffffffffffffffffffffffffffffffffffffff16815260200190815260200160002090508281600001541015610b5b576040517f08c379a00000000000000000000000000000000000000000000000000000000081526004018080602001828103825260128152602001807f77697468647261773a206e6f7420676f6f64000000000000000000000000000081525060200191505060405180910390fd5b610b64846110fc565b6000610bae8260010154610ba064e8d4a51000610b92876003015487600001546121de90919063ffffffff16565b61226490919063ffffffff16565b6122ae90919063ffffffff16565b90506000811115610bc457610bc333826122f8565b5b6000841115610c3c57610be48483600001546122ae90919063ffffffff16565b8260000181905550610c3b33858560000160009054906101000a900473ffffffffffffffffffffffffffffffffffffffff1673ffffffffffffffffffffffffffffffffffffffff166125719092919063ffffffff16565b5b610c6e64e8d4a51000610c60856003015485600001546121de90919063ffffffff16565b61226490919063ffffffff16565b8260010181905550843373ffffffffffffffffffffffffffffffffffffffff167ff279e6a1f5e320cca91135676d9cb6e44ca8a08c0b88342bcdb1144f6511b568866040518082815260200191505060405180910390a35050505050565b600073ffffffffffffffffffffffffffffffffffffffff16600560009054906101000a900473ffffffffffffffffffffffffffffffffffffffff1673ffffffffffffffffffffffffffffffffffffffff161415610d91576040517f08c379a00000000000000000000000000000000000000000000000000000000081526004018080602001828103825260148152602001807f6d6967726174653a206e6f206d69677261746f7200000000000000000000000081525060200191505060405180910390fd5b600060068281548110610da057fe5b9060005260206000209060040201905060008160000160009054906101000a900473ffffffffffffffffffffffffffffffffffffffff16905060008173ffffffffffffffffffffffffffffffffffffffff166370a08231306040518263ffffffff1660e01b8152600401808273ffffffffffffffffffffffffffffffffffffffff16815260200191505060206040518083038186803b158015610e4257600080fd5b505afa158015610e56573d6000803e3d6000fd5b505050506040513d6020811015610e6c57600080fd5b81019080805190602001909291905050509050610ecc600560009054906101000a900473ffffffffffffffffffffffffffffffffffffffff16828473ffffffffffffffffffffffffffffffffffffffff166126139092919063ffffffff16565b6000600560009054906101000a900473ffffffffffffffffffffffffffffffffffffffff1673ffffffffffffffffffffffffffffffffffffffff1663ce5494bb846040518263ffffffff1660e01b8152600401808273ffffffffffffffffffffffffffffffffffffffff168152602001915050602060405180830381600087803b158015610f5957600080fd5b505af1158015610f6d573d6000803e3d6000fd5b505050506040513d6020811015610f8357600080fd5b810190808051906020019092919050505090508073ffffffffffffffffffffffffffffffffffffffff166370a08231306040518263ffffffff1660e01b8152600401808273ffffffffffffffffffffffffffffffffffffffff16815260200191505060206040518083038186803b158015610ffd57600080fd5b505afa158015611011573d6000803e3d6000fd5b505050506040513d602081101561102757600080fd5b810190808051906020019092919050505082146110ac576040517f08c379a000000000000000000000000000000000000000000000000000000000815260040180806020018281038252600c8152602001807f6d6967726174653a20626164000000000000000000000000000000000000000081525060200191505060405180910390fd5b808460000160006101000a81548173ffffffffffffffffffffffffffffffffffffffff021916908373ffffffffffffffffffffffffffffffffffffffff1602179055505050505050565b60095481565b60006006828154811061110b57fe5b906000526020600020906004020190508060020154431161112c5750611445565b60008160000160009054906101000a900473ffffffffffffffffffffffffffffffffffffffff1673ffffffffffffffffffffffffffffffffffffffff166370a08231306040518263ffffffff1660e01b8152600401808273ffffffffffffffffffffffffffffffffffffffff16815260200191505060206040518083038186803b1580156111b957600080fd5b505afa1580156111cd573d6000803e3d6000fd5b505050506040513d60208110156111e357600080fd5b81019080805190602001909291905050509050600081141561120f574382600201819055505050611445565b600061121f836002015443611c40565b905060006112626008546112548660010154611246600454876121de90919063ffffffff16565b6121de90919063ffffffff16565b61226490919063ffffffff16565b9050600160009054906101000a900473ffffffffffffffffffffffffffffffffffffffff1673ffffffffffffffffffffffffffffffffffffffff166340c10f19600260009054906101000a900473ffffffffffffffffffffffffffffffffffffffff166112d9600a8561226490919063ffffffff16565b6040518363ffffffff1660e01b8152600401808373ffffffffffffffffffffffffffffffffffffffff16815260200182815260200192505050600060405180830381600087803b15801561132c57600080fd5b505af1158015611340573d6000803e3d6000fd5b50505050600160009054906101000a900473ffffffffffffffffffffffffffffffffffffffff1673ffffffffffffffffffffffffffffffffffffffff166340c10f1930836040518363ffffffff1660e01b8152600401808373ffffffffffffffffffffffffffffffffffffffff16815260200182815260200192505050600060405180830381600087803b1580156113d757600080fd5b505af11580156113eb573d6000803e3d6000fd5b5050505061142f61141c8461140e64e8d4a51000856121de90919063ffffffff16565b61226490919063ffffffff16565b856003015461215690919063ffffffff16565b8460030181905550438460020181905550505050505b50565b60006006828154811061145757fe5b9060005260206000209060040201905060006007600084815260200190815260200160002060003373ffffffffffffffffffffffffffffffffffffffff1673ffffffffffffffffffffffffffffffffffffffff1681526020019081526020016000209050600081600001549050600082600001819055506000826001018190555061152733828560000160009054906101000a900473ffffffffffffffffffffffffffffffffffffffff1673ffffffffffffffffffffffffffffffffffffffff166125719092919063ffffffff16565b833373ffffffffffffffffffffffffffffffffffffffff167fbb757047c2b5f3974fe26b7c10f732e7bce710b0952a71082702781e62ae0595836040518082815260200191505060405180910390a350505050565b6000806006848154811061158c57fe5b9060005260206000209060040201905060006007600086815260200190815260200160002060008573ffffffffffffffffffffffffffffffffffffffff1673ffffffffffffffffffffffffffffffffffffffff168152602001908152602001600020905060008260030154905060008360000160009054906101000a900473ffffffffffffffffffffffffffffffffffffffff1673ffffffffffffffffffffffffffffffffffffffff166370a08231306040518263ffffffff1660e01b8152600401808273ffffffffffffffffffffffffffffffffffffffff16815260200191505060206040518083038186803b15801561168657600080fd5b505afa15801561169a573d6000803e3d6000fd5b505050506040513d60208110156116b057600080fd5b810190808051906020019092919050505090508360020154431180156116d7575060008114155b156117725760006116ec856002015443611c40565b9050600061172f6008546117218860010154611713600454876121de90919063ffffffff16565b6121de90919063ffffffff16565b61226490919063ffffffff16565b905061176d61175e8461175064e8d4a51000856121de90919063ffffffff16565b61226490919063ffffffff16565b8561215690919063ffffffff16565b935050505b6117b683600101546117a864e8d4a5100061179a8688600001546121de90919063ffffffff16565b61226490919063ffffffff16565b6122ae90919063ffffffff16565b94505050505092915050565b6000600680549050905060005b818110156117eb576117e0816110fc565b8060010190506117cf565b5050565b6117f761214e565b73ffffffffffffffffffffffffffffffffffffffff1660008054906101000a900473ffffffffffffffffffffffffffffffffffffffff1673ffffffffffffffffffffffffffffffffffffffff16146118b7576040517f08c379a00000000000000000000000000000000000000000000000000000000081526004018080602001828103825260208152602001807f4f776e61626c653a2063616c6c6572206973206e6f7420746865206f776e657281525060200191505060405180910390fd5b80156118c6576118c56117c2565b5b61190b826118fd600686815481106118da57fe5b9060005260206000209060040201600101546008546122ae90919063ffffffff16565b61215690919063ffffffff16565b600881905550816006848154811061191f57fe5b906000526020600020906004020160010181905550505050565b61194161214e565b73ffffffffffffffffffffffffffffffffffffffff1660008054906101000a900473ffffffffffffffffffffffffffffffffffffffff1673ffffffffffffffffffffffffffffffffffffffff1614611a01576040517f08c379a00000000000000000000000000000000000000000000000000000000081526004018080602001828103825260208152602001807f4f776e61626c653a2063616c6c6572206973206e6f7420746865206f776e657281525060200191505060405180910390fd5b600073ffffffffffffffffffffffffffffffffffffffff1660008054906101000a900473ffffffffffffffffffffffffffffffffffffffff1673ffffffffffffffffffffffffffffffffffffffff167f8be0079c531659141344cd1fd0a4f28419497f9722a3daafe3b4186f6b6457e060405160405180910390a360008060006101000a81548173ffffffffffffffffffffffffffffffffffffffff021916908373ffffffffffffffffffffffffffffffffffffffff160217905550565b600560009054906101000a900473ffffffffffffffffffffffffffffffffffffffff1681565b600160009054906101000a900473ffffffffffffffffffffffffffffffffffffffff1681565b600a81565b600260009054906101000a900473ffffffffffffffffffffffffffffffffffffffff1673ffffffffffffffffffffffffffffffffffffffff163373ffffffffffffffffffffffffffffffffffffffff1614611bd3576040517f08c379a00000000000000000000000000000000000000000000000000000000081526004018080602001828103825260098152602001807f6465763a207775743f000000000000000000000000000000000000000000000081525060200191505060405180910390fd5b80600260006101000a81548173ffffffffffffffffffffffffffffffffffffffff021916908373ffffffffffffffffffffffffffffffffffffffff16021790555050565b60008060009054906101000a900473ffffffffffffffffffffffffffffffffffffffff16905090565b60006003548211611c7857611c71600a611c6385856122ae90919063ffffffff16565b6121de90919063ffffffff16565b9050611cec565b6003548310611c9b57611c9483836122ae90919063ffffffff16565b9050611cec565b611ce9611cb3600354846122ae90919063ffffffff16565b611cdb600a611ccd876003546122ae90919063ffffffff16565b6121de90919063ffffffff16565b61215690919063ffffffff16565b90505b92915050565b6007602052816000526040600020602052806000526040600020600091509150508060000154908060010154905082565b60045481565b600260009054906101000a900473ffffffffffffffffffffffffffffffffffffffff1681565b600060068381548110611d5e57fe5b9060005260206000209060040201905060006007600085815260200190815260200160002060003373ffffffffffffffffffffffffffffffffffffffff1673ffffffffffffffffffffffffffffffffffffffff1681526020019081526020016000209050611dcb846110fc565b600081600001541115611e3a576000611e228260010154611e1464e8d4a51000611e06876003015487600001546121de90919063ffffffff16565b61226490919063ffffffff16565b6122ae90919063ffffffff16565b90506000811115611e3857611e3733826122f8565b5b505b6000831115611eb457611e943330858560000160009054906101000a900473ffffffffffffffffffffffffffffffffffffffff1673ffffffffffffffffffffffffffffffffffffffff166127d8909392919063ffffffff16565b611eab83826000015461215690919063ffffffff16565b81600001819055505b611ee664e8d4a51000611ed8846003015484600001546121de90919063ffffffff16565b61226490919063ffffffff16565b8160010181905550833373ffffffffffffffffffffffffffffffffffffffff167f90890809c654f11d6e72a28fa60149770a0d11ec6c92319d6ceb2bb0a4ea1a15856040518082815260200191505060405180910390a350505050565b611f4b61214e565b73ffffffffffffffffffffffffffffffffffffffff1660008054906101000a900473ffffffffffffffffffffffffffffffffffffffff1673ffffffffffffffffffffffffffffffffffffffff161461200b576040517f08c379a00000000000000000000000000000000000000000000000000000000081526004018080602001828103825260208152602001807f4f776e61626c653a2063616c6c6572206973206e6f7420746865206f776e657281525060200191505060405180910390fd5b600073ffffffffffffffffffffffffffffffffffffffff168173ffffffffffffffffffffffffffffffffffffffff161415612091576040517f08c379a0000000000000000000000000000000000000000000000000000000008152600401808060200182810382526026815260200180612daf6026913960400191505060405180910390fd5b8073ffffffffffffffffffffffffffffffffffffffff1660008054906101000a900473ffffffffffffffffffffffffffffffffffffffff1673ffffffffffffffffffffffffffffffffffffffff167f8be0079c531659141344cd1fd0a4f28419497f9722a3daafe3b4186f6b6457e060405160405180910390a3806000806101000a81548173ffffffffffffffffffffffffffffffffffffffff021916908373ffffffffffffffffffffffffffffffffffffffff16021790555050565b600033905090565b6000808284019050838110156121d4576040517f08c379a000000000000000000000000000000000000000000000000000000000815260040180806020018281038252601b8152602001807f536166654d6174683a206164646974696f6e206f766572666c6f77000000000081525060200191505060405180910390fd5b8091505092915050565b6000808314156121f1576000905061225e565b600082840290508284828161220257fe5b0414612259576040517f08c379a0000000000000000000000000000000000000000000000000000000008152600401808060200182810382526021815260200180612dfb6021913960400191505060405180910390fd5b809150505b92915050565b60006122a683836040518060400160405280601a81526020017f536166654d6174683a206469766973696f6e206279207a65726f000000000000815250612899565b905092915050565b60006122f083836040518060400160405280601e81526020017f536166654d6174683a207375627472616374696f6e206f766572666c6f77000081525061295f565b905092915050565b6000600160009054906101000a900473ffffffffffffffffffffffffffffffffffffffff1673ffffffffffffffffffffffffffffffffffffffff166370a08231306040518263ffffffff1660e01b8152600401808273ffffffffffffffffffffffffffffffffffffffff16815260200191505060206040518083038186803b15801561238357600080fd5b505afa158015612397573d6000803e3d6000fd5b505050506040513d60208110156123ad57600080fd5b810190808051906020019092919050505090508082111561249c57600160009054906101000a900473ffffffffffffffffffffffffffffffffffffffff1673ffffffffffffffffffffffffffffffffffffffff1663a9059cbb84836040518363ffffffff1660e01b8152600401808373ffffffffffffffffffffffffffffffffffffffff16815260200182815260200192505050602060405180830381600087803b15801561245b57600080fd5b505af115801561246f573d6000803e3d6000fd5b505050506040513d602081101561248557600080fd5b81019080805190602001909291905050505061256c565b600160009054906101000a900473ffffffffffffffffffffffffffffffffffffffff1673ffffffffffffffffffffffffffffffffffffffff1663a9059cbb84846040518363ffffffff1660e01b8152600401808373ffffffffffffffffffffffffffffffffffffffff16815260200182815260200192505050602060405180830381600087803b15801561252f57600080fd5b505af1158015612543573d6000803e3d6000fd5b505050506040513d602081101561255957600080fd5b8101908080519060200190929190505050505b505050565b61260e8363a9059cbb60e01b8484604051602401808373ffffffffffffffffffffffffffffffffffffffff16815260200182815260200192505050604051602081830303815290604052907bffffffffffffffffffffffffffffffffffffffffffffffffffffffff19166020820180517bffffffffffffffffffffffffffffffffffffffffffffffffffffffff8381831617835250505050612a1f565b505050565b60008114806126e1575060008373ffffffffffffffffffffffffffffffffffffffff1663dd62ed3e30856040518363ffffffff1660e01b8152600401808373ffffffffffffffffffffffffffffffffffffffff1681526020018273ffffffffffffffffffffffffffffffffffffffff1681526020019250505060206040518083038186803b1580156126a457600080fd5b505afa1580156126b8573d6000803e3d6000fd5b505050506040513d60208110156126ce57600080fd5b8101908080519060200190929190505050145b612736576040517f08c379a0000000000000000000000000000000000000000000000000000000008152600401808060200182810382526036815260200180612e466036913960400191505060405180910390fd5b6127d38363095ea7b360e01b8484604051602401808373ffffffffffffffffffffffffffffffffffffffff16815260200182815260200192505050604051602081830303815290604052907bffffffffffffffffffffffffffffffffffffffffffffffffffffffff19166020820180517bffffffffffffffffffffffffffffffffffffffffffffffffffffffff8381831617835250505050612a1f565b505050565b612893846323b872dd60e01b858585604051602401808473ffffffffffffffffffffffffffffffffffffffff1681526020018373ffffffffffffffffffffffffffffffffffffffff1681526020018281526020019350505050604051602081830303815290604052907bffffffffffffffffffffffffffffffffffffffffffffffffffffffff19166020820180517bffffffffffffffffffffffffffffffffffffffffffffffffffffffff8381831617835250505050612a1f565b50505050565b60008083118290612945576040517f08c379a00000000000000000000000000000000000000000000000000000000081526004018080602001828103825283818151815260200191508051906020019080838360005b8381101561290a5780820151818401526020810190506128ef565b50505050905090810190601f1680156129375780820380516001836020036101000a031916815260200191505b509250505060405180910390fd5b50600083858161295157fe5b049050809150509392505050565b6000838311158290612a0c576040517f08c379a00000000000000000000000000000000000000000000000000000000081526004018080602001828103825283818151815260200191508051906020019080838360005b838110156129d15780820151818401526020810190506129b6565b50505050905090810190601f1680156129fe5780820380516001836020036101000a031916815260200191505b509250505060405180910390fd5b5060008385039050809150509392505050565b6060612a81826040518060400160405280602081526020017f5361666545524332303a206c6f772d6c6576656c2063616c6c206661696c65648152508573ffffffffffffffffffffffffffffffffffffffff16612b0e9092919063ffffffff16565b9050600081511115612b0957808060200190516020811015612aa257600080fd5b8101908080519060200190929190505050612b08576040517f08c379a000000000000000000000000000000000000000000000000000000000815260040180806020018281038252602a815260200180612e1c602a913960400191505060405180910390fd5b5b505050565b6060612b1d8484600085612b26565b90509392505050565b606082471015612b81576040517f08c379a0000000000000000000000000000000000000000000000000000000008152600401808060200182810382526026815260200180612dd56026913960400191505060405180910390fd5b612b8a85612ccf565b612bfc576040517f08c379a000000000000000000000000000000000000000000000000000000000815260040180806020018281038252601d8152602001807f416464726573733a2063616c6c20746f206e6f6e2d636f6e747261637400000081525060200191505060405180910390fd5b600060608673ffffffffffffffffffffffffffffffffffffffff1685876040518082805190602001908083835b60208310612c4c5780518252602082019150602081019050602083039250612c29565b6001836020036101000a03801982511681845116808217855250505050505090500191505060006040518083038185875af1925050503d8060008114612cae576040519150601f19603f3d011682016040523d82523d6000602084013e612cb3565b606091505b5091509150612cc3828286612ce2565b92505050949350505050565b600080823b905060008111915050919050565b60608315612cf257829050612da7565b600083511115612d055782518084602001fd5b816040517f08c379a00000000000000000000000000000000000000000000000000000000081526004018080602001828103825283818151815260200191508051906020019080838360005b83811015612d6c578082015181840152602081019050612d51565b50505050905090810190601f168015612d995780820380516001836020036101000a031916815260200191505b509250505060405180910390fd5b939250505056fe4f776e61626c653a206e6577206f776e657220697320746865207a65726f2061646472657373416464726573733a20696e73756666696369656e742062616c616e636520666f722063616c6c536166654d6174683a206d756c7469706c69636174696f6e206f766572666c6f775361666545524332303a204552433230206f7065726174696f6e20646964206e6f7420737563636565645361666545524332303a20617070726f76652066726f6d206e6f6e2d7a65726f20746f206e6f6e2d7a65726f20616c6c6f77616e6365a264697066735822122011bb0cef8154cf6881650eedab6743c287def38215128e96f619ccdcbe696d0564736f6c634300060c0033",
  "immutableReferences": {},
  "source": "// \"SPDX-License-Identifier: UNLICENSED\"\npragma solidity 0.6.12;\n\n\nimport \"@openzeppelin/contracts/token/ERC20/IERC20.sol\";\nimport \"@openzeppelin/contracts/token/ERC20/SafeERC20.sol\";\nimport \"@openzeppelin/contracts/utils/EnumerableSet.sol\";\nimport \"@openzeppelin/contracts/math/SafeMath.sol\";\nimport \"@openzeppelin/contracts/access/Ownable.sol\";\nimport \"./LoadToken.sol\";\n\n\ninterface IMigrator {\n    // Perform LP token migration from legacy UniswapV2 to Reloaded.\n    // Take the current LP token address and return the new LP token address.\n    // Migrator should have full access to the caller's LP token.\n    // Return the new LP token address.\n    //\n    // XXX Migrator must have allowance access to UniswapV2 LP tokens.\n    // Reloaded must mint EXACTLY the same amount of Reloaded LP tokens or\n    // else something bad will happen. Traditional UniswapV2 does not\n    // do that so be careful!\n    function migrate(IERC20 token) external returns (IERC20);\n}\n\n// Minter is the master of Load. He can make Load and he is a fair guy.\n//\n// Note that it's ownable and the owner wields tremendous power. The ownership\n// will be transferred to a governance smart contract once LOAD is sufficiently\n// distributed and the community can show to govern itself.\n//\n// Have fun reading it. Hopefully it's bug-free. God bless.\ncontract Minter is Ownable {\n    using SafeMath for uint256;\n    using SafeERC20 for IERC20;\n\n    // Info of each user.\n    struct UserInfo {\n        uint256 amount;     // How many LP tokens the user has provided.\n        uint256 rewardDebt; // Reward debt. See explanation below.\n        //\n        // We do some fancy math here. Basically, any point in time, the amount of LOADs\n        // entitled to a user but is pending to be distributed is:\n        //\n        //   pending reward = (user.amount * pool.accLoadPerShare) - user.rewardDebt\n        //\n        // Whenever a user deposits or withdraws LP tokens to a pool. Here's what happens:\n        //   1. The pool's `accLoadPerShare` (and `lastRewardBlock`) gets updated.\n        //   2. User receives the pending reward sent to his/her address.\n        //   3. User's `amount` gets updated.\n        //   4. User's `rewardDebt` gets updated.\n    }\n\n    // Info of each pool.\n    struct PoolInfo {\n        IERC20 lpToken;           // Address of LP token contract.\n        uint256 allocPoint;       // How many allocation points assigned to this pool. LOADs to distribute per block.\n        uint256 lastRewardBlock;  // Last block number that LOADs distribution occurs.\n        uint256 accLoadPerShare; // Accumulated LOADs per share, times 1e12. See below.\n    }\n\n    // The LOAD TOKEN!\n    LoadToken public load;\n    // Dev address.\n    address public devaddr;\n    // Block number when bonus LOAD period ends.\n    uint256 public bonusEndBlock;\n    // LOAD tokens created per block.\n    uint256 public loadPerBlock;\n    // Bonus muliplier for early load makers.\n    uint256 public constant BONUS_MULTIPLIER = 10;\n    // The migrator contract. It has a lot of power. Can only be set through governance (owner).\n    IMigrator public migrator;\n\n    // Info of each pool.\n    PoolInfo[] public poolInfo;\n    // Info of each user that stakes LP tokens.\n    mapping (uint256 => mapping (address => UserInfo)) public userInfo;\n    // Total allocation points. Must be the sum of all allocation points in all pools.\n    uint256 public totalAllocPoint = 0;\n    // The block number when LOAD mining starts.\n    uint256 public startBlock;\n\n    event Deposit(address indexed user, uint256 indexed pid, uint256 amount);\n    event Withdraw(address indexed user, uint256 indexed pid, uint256 amount);\n    event EmergencyWithdraw(address indexed user, uint256 indexed pid, uint256 amount);\n\n    constructor(\n        LoadToken _load,\n        address _devaddr,\n        uint256 _loadPerBlock,\n        uint256 _startBlock,\n        uint256 _bonusEndBlock\n    ) public {\n        load = _load;\n        devaddr = _devaddr;\n        loadPerBlock = _loadPerBlock;\n        bonusEndBlock = _bonusEndBlock;\n        startBlock = _startBlock;\n    }\n\n    function poolLength() external view returns (uint256) {\n        return poolInfo.length;\n    }\n\n    // Add a new lp to the pool. Can only be called by the owner.\n    // XXX DO NOT add the same LP token more than once. Rewards will be messed up if you do.\n    function add(uint256 _allocPoint, IERC20 _lpToken, bool _withUpdate) public onlyOwner {\n        if (_withUpdate) {\n            massUpdatePools();\n        }\n        uint256 lastRewardBlock = block.number > startBlock ? block.number : startBlock;\n        totalAllocPoint = totalAllocPoint.add(_allocPoint);\n        poolInfo.push(PoolInfo({\n            lpToken: _lpToken,\n            allocPoint: _allocPoint,\n            lastRewardBlock: lastRewardBlock,\n            accLoadPerShare: 0\n        }));\n    }\n\n    // Update the given pool's LOAD allocation point. Can only be called by the owner.\n    function set(uint256 _pid, uint256 _allocPoint, bool _withUpdate) public onlyOwner {\n        if (_withUpdate) {\n            massUpdatePools();\n        }\n        totalAllocPoint = totalAllocPoint.sub(poolInfo[_pid].allocPoint).add(_allocPoint);\n        poolInfo[_pid].allocPoint = _allocPoint;\n    }\n\n    // Set the migrator contract. Can only be called by the owner.\n    function setMigrator(IMigrator _migrator) public onlyOwner {\n        migrator = _migrator;\n    }\n\n    // Migrate lp token to another lp contract. Can be called by anyone. We trust that migrator contract is good.\n    function migrate(uint256 _pid) public {\n        require(address(migrator) != address(0), \"migrate: no migrator\");\n        PoolInfo storage pool = poolInfo[_pid];\n        IERC20 lpToken = pool.lpToken;\n        uint256 bal = lpToken.balanceOf(address(this));\n        lpToken.safeApprove(address(migrator), bal);\n        IERC20 newLpToken = migrator.migrate(lpToken);\n        require(bal == newLpToken.balanceOf(address(this)), \"migrate: bad\");\n        pool.lpToken = newLpToken;\n    }\n\n    // Return reward multiplier over the given _from to _to block.\n    function getMultiplier(uint256 _from, uint256 _to) public view returns (uint256) {\n        if (_to <= bonusEndBlock) {\n            return _to.sub(_from).mul(BONUS_MULTIPLIER);\n        } else if (_from >= bonusEndBlock) {\n            return _to.sub(_from);\n        } else {\n            return bonusEndBlock.sub(_from).mul(BONUS_MULTIPLIER).add(\n                _to.sub(bonusEndBlock)\n            );\n        }\n    }\n\n    // View function to see pending LOADs on frontend.\n    function pendingLoad(uint256 _pid, address _user) external view returns (uint256) {\n        PoolInfo storage pool = poolInfo[_pid];\n        UserInfo storage user = userInfo[_pid][_user];\n        uint256 accLoadPerShare = pool.accLoadPerShare;\n        uint256 lpSupply = pool.lpToken.balanceOf(address(this));\n        if (block.number > pool.lastRewardBlock && lpSupply != 0) {\n            uint256 multiplier = getMultiplier(pool.lastRewardBlock, block.number);\n            uint256 loadReward = multiplier.mul(loadPerBlock).mul(pool.allocPoint).div(totalAllocPoint);\n            accLoadPerShare = accLoadPerShare.add(loadReward.mul(1e12).div(lpSupply));\n        }\n        return user.amount.mul(accLoadPerShare).div(1e12).sub(user.rewardDebt);\n    }\n\n    // Update reward variables for all pools. Be careful of gas spending!\n    function massUpdatePools() public {\n        uint256 length = poolInfo.length;\n        for (uint256 pid = 0; pid < length; ++pid) {\n            updatePool(pid);\n        }\n    }\n\n    // Update reward variables of the given pool to be up-to-date.\n    function updatePool(uint256 _pid) public {\n        PoolInfo storage pool = poolInfo[_pid];\n        if (block.number <= pool.lastRewardBlock) {\n            return;\n        }\n        uint256 lpSupply = pool.lpToken.balanceOf(address(this));\n        if (lpSupply == 0) {\n            pool.lastRewardBlock = block.number;\n            return;\n        }\n        uint256 multiplier = getMultiplier(pool.lastRewardBlock, block.number);\n        uint256 loadReward = multiplier.mul(loadPerBlock).mul(pool.allocPoint).div(totalAllocPoint);\n        load.mint(devaddr, loadReward.div(10));\n        load.mint(address(this), loadReward);\n        pool.accLoadPerShare = pool.accLoadPerShare.add(loadReward.mul(1e12).div(lpSupply));\n        pool.lastRewardBlock = block.number;\n    }\n\n    // Deposit LP tokens to Minter for LOAD allocation.\n    function deposit(uint256 _pid, uint256 _amount) public {\n        PoolInfo storage pool = poolInfo[_pid];\n        UserInfo storage user = userInfo[_pid][msg.sender];\n        updatePool(_pid);\n        if (user.amount > 0) {\n            uint256 pending = user.amount.mul(pool.accLoadPerShare).div(1e12).sub(user.rewardDebt);\n            if(pending > 0) {\n                safeLoadTransfer(msg.sender, pending);\n            }\n        }\n        if(_amount > 0) {\n            pool.lpToken.safeTransferFrom(address(msg.sender), address(this), _amount);\n            user.amount = user.amount.add(_amount);\n        }\n        user.rewardDebt = user.amount.mul(pool.accLoadPerShare).div(1e12);\n        emit Deposit(msg.sender, _pid, _amount);\n    }\n\n    // Withdraw LP tokens from Minter.\n    function withdraw(uint256 _pid, uint256 _amount) public {\n        PoolInfo storage pool = poolInfo[_pid];\n        UserInfo storage user = userInfo[_pid][msg.sender];\n        require(user.amount >= _amount, \"withdraw: not good\");\n        updatePool(_pid);\n        uint256 pending = user.amount.mul(pool.accLoadPerShare).div(1e12).sub(user.rewardDebt);\n        if(pending > 0) {\n            safeLoadTransfer(msg.sender, pending);\n        }\n        if(_amount > 0) {\n            user.amount = user.amount.sub(_amount);\n            pool.lpToken.safeTransfer(address(msg.sender), _amount);\n        }\n        user.rewardDebt = user.amount.mul(pool.accLoadPerShare).div(1e12);\n        emit Withdraw(msg.sender, _pid, _amount);\n    }\n\n    // Withdraw without caring about rewards. EMERGENCY ONLY.\n    function emergencyWithdraw(uint256 _pid) public {\n        PoolInfo storage pool = poolInfo[_pid];\n        UserInfo storage user = userInfo[_pid][msg.sender];\n        uint256 amount = user.amount;\n        user.amount = 0;\n        user.rewardDebt = 0;\n        pool.lpToken.safeTransfer(address(msg.sender), amount);\n        emit EmergencyWithdraw(msg.sender, _pid, amount);\n    }\n\n    // Safe load transfer function, just in case if rounding error causes pool to not have enough LOADs.\n    function safeLoadTransfer(address _to, uint256 _amount) internal {\n        uint256 loadBal = load.balanceOf(address(this));\n        if (_amount > loadBal) {\n            load.transfer(_to, loadBal);\n        } else {\n            load.transfer(_to, _amount);\n        }\n    }\n\n    // Update dev address by the previous dev.\n    function dev(address _devaddr) public {\n        require(msg.sender == devaddr, \"dev: wut?\");\n        devaddr = _devaddr;\n    }\n}\n",
  "sourcePath": "/Users/mac/Documents/Code/apps/solidity/defi/reloaded/contracts/Minter.sol",
  "compiler": {
    "name": "solc",
    "version": "0.6.12+commit.27d51765.Emscripten.clang"
  },
  "schemaVersion": "3.3.2",
  "updatedAt": "2021-01-07T13:44:54.524Z",
  "networkType": "ethereum",
  "devdoc": {
    "kind": "dev",
    "methods": {
      "owner()": {
        "details": "Returns the address of the current owner."
      },
      "renounceOwnership()": {
        "details": "Leaves the contract without owner. It will not be possible to call `onlyOwner` functions anymore. Can only be called by the current owner. NOTE: Renouncing ownership will leave the contract without an owner, thereby removing any functionality that is only available to the owner."
      },
      "transferOwnership(address)": {
        "details": "Transfers ownership of the contract to a new account (`newOwner`). Can only be called by the current owner."
      }
    },
    "version": 1
  },
  "userdoc": {
    "kind": "user",
    "methods": {},
    "version": 1
  }
}